{
  "contractName": "Coin1",
  "abi": [
    {
      "constant": true,
      "inputs": [],
      "name": "name",
      "outputs": [
        {
          "name": "",
          "type": "string"
        }
      ],
      "payable": false,
      "stateMutability": "view",
      "type": "function"
    },
    {
      "constant": true,
      "inputs": [],
      "name": "totalSupply",
      "outputs": [
        {
          "name": "",
          "type": "uint256"
        }
      ],
      "payable": false,
      "stateMutability": "view",
      "type": "function"
    },
    {
      "constant": true,
      "inputs": [],
      "name": "decimal",
      "outputs": [
        {
          "name": "",
          "type": "uint256"
        }
      ],
      "payable": false,
      "stateMutability": "view",
      "type": "function"
    },
    {
      "constant": true,
      "inputs": [],
      "name": "symbol",
      "outputs": [
        {
          "name": "",
          "type": "string"
        }
      ],
      "payable": false,
      "stateMutability": "view",
      "type": "function"
    },
    {
      "inputs": [
        {
          "name": "initialSupply",
          "type": "uint256"
        }
      ],
      "payable": false,
      "stateMutability": "nonpayable",
      "type": "constructor"
    },
    {
      "anonymous": false,
      "inputs": [
        {
          "indexed": false,
          "name": "_from",
          "type": "address"
        },
        {
          "indexed": false,
          "name": "_to",
          "type": "address"
        },
        {
          "indexed": false,
          "name": "_value",
          "type": "uint256"
        }
      ],
      "name": "Transfer",
      "type": "event"
    },
    {
      "constant": false,
      "inputs": [
        {
          "name": "_from",
          "type": "address"
        },
        {
          "name": "_to",
          "type": "address"
        },
        {
          "name": "_value",
          "type": "uint256"
        }
      ],
      "name": "transfer",
      "outputs": [
        {
          "name": "success",
          "type": "bool"
        }
      ],
      "payable": false,
      "stateMutability": "nonpayable",
      "type": "function"
    }
  ],
  "bytecode": "0x608060405234801561001057600080fd5b506040516020806105448339810180604052810190808051906020019092919050505080600081905550600054600160003373ffffffffffffffffffffffffffffffffffffffff1673ffffffffffffffffffffffffffffffffffffffff16815260200190815260200160002081905550506104b4806100906000396000f30060806040526004361061006d576000357c0100000000000000000000000000000000000000000000000000000000900463ffffffff16806306fdde031461007257806318160ddd1461010257806376809ce31461012d57806395d89b4114610158578063beabacc8146101e8575b600080fd5b34801561007e57600080fd5b5061008761026d565b6040518080602001828103825283818151815260200191508051906020019080838360005b838110156100c75780820151818401526020810190506100ac565b50505050905090810190601f1680156100f45780820380516001836020036101000a031916815260200191505b509250505060405180910390f35b34801561010e57600080fd5b506101176102a6565b6040518082815260200191505060405180910390f35b34801561013957600080fd5b506101426102ac565b6040518082815260200191505060405180910390f35b34801561016457600080fd5b5061016d6102b1565b6040518080602001828103825283818151815260200191508051906020019080838360005b838110156101ad578082015181840152602081019050610192565b50505050905090810190601f1680156101da5780820380516001836020036101000a031916815260200191505b509250505060405180910390f35b3480156101f457600080fd5b50610253600480360381019080803573ffffffffffffffffffffffffffffffffffffffff169060200190929190803573ffffffffffffffffffffffffffffffffffffffff169060200190929190803590602001909291905050506102ea565b604051808215151515815260200191505060405180910390f35b6040805190810160405280601581526020017f666f6f7462616c6c2066616e7461637920636f696e000000000000000000000081525081565b60005481565b600681565b6040805190810160405280600381526020017f464643000000000000000000000000000000000000000000000000000000000081525081565b600080821180156103395750600160003373ffffffffffffffffffffffffffffffffffffffff1673ffffffffffffffffffffffffffffffffffffffff1681526020019081526020016000205482115b156103475760009050610481565b81600160003373ffffffffffffffffffffffffffffffffffffffff1673ffffffffffffffffffffffffffffffffffffffff1681526020019081526020016000206000828254039250508190555081600160008573ffffffffffffffffffffffffffffffffffffffff1673ffffffffffffffffffffffffffffffffffffffff168152602001908152602001600020600082825401925050819055507fddf252ad1be2c89b69c2b068fc378daa952ba7f163c4a11628f55a4df523b3ef848484604051808473ffffffffffffffffffffffffffffffffffffffff1673ffffffffffffffffffffffffffffffffffffffff1681526020018373ffffffffffffffffffffffffffffffffffffffff1673ffffffffffffffffffffffffffffffffffffffff168152602001828152602001935050505060405180910390a15b93925050505600a165627a7a7230582027265730c8e62d70ad70eefa71aa3c65a7aea3475d2e8822ce67c35957a113e60029",
  "source": "pragma solidity ^0.4.22;\n\n\ncontract Coin1 {\n  //name and symbol of coin\n  string public constant name = \"football fantacy coin\";\n  string public constant symbol = \"FFC\";\n\n  // decimal units of currency\n  uint public constant decimal = 6;\n\n  //total supply of unit\n  uint256 public totalSupply;\n\n  //balances of accounts\n  mapping(address=> uint256) balances;\n\n  constructor(uint256 initialSupply) public {\n    totalSupply = initialSupply;\n\n    //add balance to contract creator\n    balances[msg.sender] = totalSupply;\n  }\n\n\n\n  // transfer from calling account to recepient\n  function transfer(address _from, address _to, uint256 _value) public returns(bool success){\n    //check if value is less than sender and return false\n    if(_value > 0 && _value > balances[msg.sender] ){\n      return false;\n    }\n    //reduce sender balance and add _to balance\n    balances[msg.sender] -= _value;\n    balances[_to] += _value;\n\n    //emit the event\n    emit Transfer(_from, _to, _value );\n\n  }\n  event Transfer(address _from, address _to, uint256 _value);\n}\n",
  "sourcePath": "C:\\Users\\Solut\\Google Drive\\work2\\projects\\fantasy football coin\\frontend\\ethereum\\contracts\\Coin1.sol",
  "compiler": {
    "name": "solc",
    "version": "0.4.24+commit.e67f0147.Emscripten.clang"
  },
  "schemaVersion": "2.0.1",
  "updatedAt": "2018-08-04T13:59:08.099Z"
}