{
  "contractName": "Fantasy",
  "abi": [
    {
      "constant": true,
      "inputs": [],
      "name": "balance",
      "outputs": [
        {
          "name": "",
          "type": "uint256"
        }
      ],
      "payable": false,
      "stateMutability": "view",
      "type": "function"
    },
    {
      "constant": true,
      "inputs": [
        {
          "name": "",
          "type": "uint256"
        }
      ],
      "name": "players",
      "outputs": [
        {
          "name": "",
          "type": "address"
        }
      ],
      "payable": false,
      "stateMutability": "view",
      "type": "function"
    },
    {
      "inputs": [],
      "payable": false,
      "stateMutability": "nonpayable",
      "type": "constructor"
    },
    {
      "constant": false,
      "inputs": [
        {
          "name": "amount",
          "type": "uint256"
        },
        {
          "name": "bought",
          "type": "address"
        }
      ],
      "name": "buyPlayers",
      "outputs": [],
      "payable": false,
      "stateMutability": "nonpayable",
      "type": "function"
    },
    {
      "constant": false,
      "inputs": [
        {
          "name": "amount",
          "type": "uint256"
        },
        {
          "name": "sold",
          "type": "address"
        }
      ],
      "name": "deletePlayers",
      "outputs": [],
      "payable": false,
      "stateMutability": "nonpayable",
      "type": "function"
    }
  ],
  "bytecode": "0x608060405234801561001057600080fd5b50606460008190555061028d806100286000396000f300608060405260043610610062576000357c0100000000000000000000000000000000000000000000000000000000900463ffffffff168063b69ef8a814610067578063eb21af8514610092578063f71d96cb146100df578063fa812f031461014c575b600080fd5b34801561007357600080fd5b5061007c610199565b6040518082815260200191505060405180910390f35b34801561009e57600080fd5b506100dd60048036038101908080359060200190929190803573ffffffffffffffffffffffffffffffffffffffff16906020019092919050505061019f565b005b3480156100eb57600080fd5b5061010a60048036038101908080359060200190929190505050610214565b604051808273ffffffffffffffffffffffffffffffffffffffff1673ffffffffffffffffffffffffffffffffffffffff16815260200191505060405180910390f35b34801561015857600080fd5b5061019760048036038101908080359060200190929190803573ffffffffffffffffffffffffffffffffffffffff169060200190929190505050610252565b005b60005481565b816000540360008190555060018190806001815401808255809150509060018203906000526020600020016000909192909190916101000a81548173ffffffffffffffffffffffffffffffffffffffff021916908373ffffffffffffffffffffffffffffffffffffffff160217905550505050565b60018181548110151561022357fe5b906000526020600020016000915054906101000a900473ffffffffffffffffffffffffffffffffffffffff1681565b816000540160008190555050505600a165627a7a72305820467881a6937fd21ff037e5968459231e3c39cb9488ec82073d5bf426045c3d6b0029",
  "source": "pragma solidity ^0.4.17;\ncontract Fantasy {\n    uint public balance;\n    address [] public players;\n    \n    \n function Fantasy() public{\n        balance = 100;\n      \n    }\n    function buyPlayers( uint amount, address bought) public{\n        balance = balance - amount;\n        players.push(bought);\n        \n    }\n    function deletePlayers(uint amount, address sold) public{\n        balance = balance + amount;\n        \n    }\n    \n\n\n}",
  "sourcePath": "C:\\Users\\Solut\\Google Drive\\work2\\projects\\fantasy football coin\\frontend\\ethereum\\contracts\\Migrations.sol",
  "compiler": {
    "name": "solc",
    "version": "0.4.24+commit.e67f0147.Emscripten.clang"
  },
  "schemaVersion": "2.0.1",
  "updatedAt": "2018-08-04T13:53:31.421Z"
}